{
  "contractName": "BLldToBldStake",
  "abi": [
    {
      "inputs": [
        {
          "internalType": "address",
          "name": "_stakingToken",
          "type": "address"
        },
        {
          "internalType": "address",
          "name": "_rewardsToken",
          "type": "address"
        },
        {
          "internalType": "address payable",
          "name": "_rewardsDistributor",
          "type": "address"
        },
        {
          "internalType": "address payable",
          "name": "_buyAndBurn",
          "type": "address"
        },
        {
          "internalType": "address payable",
          "name": "_treasury",
          "type": "address"
        }
      ],
      "payable": false,
      "stateMutability": "nonpayable",
      "type": "constructor"
    },
    {
      "anonymous": false,
      "inputs": [
        {
          "indexed": true,
          "internalType": "address",
          "name": "user",
          "type": "address"
        },
        {
          "indexed": false,
          "internalType": "uint256",
          "name": "reward",
          "type": "uint256"
        }
      ],
      "name": "RewardPaid",
      "type": "event"
    },
    {
      "anonymous": false,
      "inputs": [
        {
          "indexed": true,
          "internalType": "address",
          "name": "user",
          "type": "address"
        },
        {
          "indexed": false,
          "internalType": "uint256",
          "name": "amount",
          "type": "uint256"
        }
      ],
      "name": "Staked",
      "type": "event"
    },
    {
      "anonymous": false,
      "inputs": [
        {
          "indexed": true,
          "internalType": "address",
          "name": "user",
          "type": "address"
        },
        {
          "indexed": false,
          "internalType": "uint256",
          "name": "amount",
          "type": "uint256"
        }
      ],
      "name": "Withdrawn",
      "type": "event"
    },
    {
      "anonymous": false,
      "inputs": [
        {
          "indexed": false,
          "internalType": "uint256",
          "name": "Withdraw",
          "type": "uint256"
        }
      ],
      "name": "checker",
      "type": "event"
    },
    {
      "anonymous": false,
      "inputs": [
        {
          "indexed": false,
          "internalType": "uint256",
          "name": "rewardInContract",
          "type": "uint256"
        }
      ],
      "name": "claiming",
      "type": "event"
    },
    {
      "constant": true,
      "inputs": [],
      "name": "YEAR_DURATION",
      "outputs": [
        {
          "internalType": "uint256",
          "name": "",
          "type": "uint256"
        }
      ],
      "payable": false,
      "stateMutability": "view",
      "type": "function"
    },
    {
      "constant": true,
      "inputs": [
        {
          "internalType": "address",
          "name": "_account",
          "type": "address"
        }
      ],
      "name": "balanceOf",
      "outputs": [
        {
          "internalType": "uint256",
          "name": "",
          "type": "uint256"
        }
      ],
      "payable": false,
      "stateMutability": "view",
      "type": "function"
    },
    {
      "constant": true,
      "inputs": [],
      "name": "contractBalance",
      "outputs": [
        {
          "internalType": "uint256",
          "name": "",
          "type": "uint256"
        }
      ],
      "payable": false,
      "stateMutability": "view",
      "type": "function"
    },
    {
      "constant": true,
      "inputs": [],
      "name": "pool",
      "outputs": [
        {
          "internalType": "uint256",
          "name": "",
          "type": "uint256"
        }
      ],
      "payable": false,
      "stateMutability": "view",
      "type": "function"
    },
    {
      "constant": true,
      "inputs": [],
      "name": "rewardsDistributor",
      "outputs": [
        {
          "internalType": "address",
          "name": "",
          "type": "address"
        }
      ],
      "payable": false,
      "stateMutability": "view",
      "type": "function"
    },
    {
      "constant": true,
      "inputs": [],
      "name": "rewardsToken",
      "outputs": [
        {
          "internalType": "contract IERC20",
          "name": "",
          "type": "address"
        }
      ],
      "payable": false,
      "stateMutability": "view",
      "type": "function"
    },
    {
      "constant": true,
      "inputs": [
        {
          "internalType": "address",
          "name": "",
          "type": "address"
        }
      ],
      "name": "stakerInfo",
      "outputs": [
        {
          "internalType": "address",
          "name": "user",
          "type": "address"
        },
        {
          "internalType": "uint256",
          "name": "userStakedTokens",
          "type": "uint256"
        },
        {
          "internalType": "uint256",
          "name": "stakeStarted",
          "type": "uint256"
        },
        {
          "internalType": "uint256",
          "name": "stakeEnded",
          "type": "uint256"
        },
        {
          "internalType": "uint256",
          "name": "lastUpdate",
          "type": "uint256"
        },
        {
          "internalType": "uint256",
          "name": "reward",
          "type": "uint256"
        },
        {
          "internalType": "uint256",
          "name": "withdrawn",
          "type": "uint256"
        }
      ],
      "payable": false,
      "stateMutability": "view",
      "type": "function"
    },
    {
      "constant": true,
      "inputs": [],
      "name": "stakingToken",
      "outputs": [
        {
          "internalType": "contract IERC20",
          "name": "",
          "type": "address"
        }
      ],
      "payable": false,
      "stateMutability": "view",
      "type": "function"
    },
    {
      "constant": true,
      "inputs": [],
      "name": "totalStake",
      "outputs": [
        {
          "internalType": "uint256",
          "name": "",
          "type": "uint256"
        }
      ],
      "payable": false,
      "stateMutability": "view",
      "type": "function"
    },
    {
      "constant": true,
      "inputs": [],
      "name": "totalSupply",
      "outputs": [
        {
          "internalType": "uint256",
          "name": "",
          "type": "uint256"
        }
      ],
      "payable": false,
      "stateMutability": "view",
      "type": "function"
    },
    {
      "constant": true,
      "inputs": [
        {
          "internalType": "address",
          "name": "",
          "type": "address"
        }
      ],
      "name": "userRewardsPaid",
      "outputs": [
        {
          "internalType": "uint256",
          "name": "",
          "type": "uint256"
        }
      ],
      "payable": false,
      "stateMutability": "view",
      "type": "function"
    },
    {
      "constant": false,
      "inputs": [
        {
          "internalType": "uint256",
          "name": "_amount",
          "type": "uint256"
        }
      ],
      "name": "createPool",
      "outputs": [],
      "payable": false,
      "stateMutability": "nonpayable",
      "type": "function"
    },
    {
      "constant": false,
      "inputs": [],
      "name": "withdrawOwner",
      "outputs": [],
      "payable": false,
      "stateMutability": "nonpayable",
      "type": "function"
    },
    {
      "constant": false,
      "inputs": [
        {
          "internalType": "uint256",
          "name": "_addAmount",
          "type": "uint256"
        }
      ],
      "name": "stake",
      "outputs": [],
      "payable": false,
      "stateMutability": "nonpayable",
      "type": "function"
    },
    {
      "constant": false,
      "inputs": [],
      "name": "unstake",
      "outputs": [],
      "payable": false,
      "stateMutability": "nonpayable",
      "type": "function"
    },
    {
      "constant": true,
      "inputs": [],
      "name": "pendingReward",
      "outputs": [
        {
          "internalType": "uint256",
          "name": "",
          "type": "uint256"
        }
      ],
      "payable": false,
      "stateMutability": "view",
      "type": "function"
    },
    {
      "constant": true,
      "inputs": [
        {
          "internalType": "address",
          "name": "_user",
          "type": "address"
        }
      ],
      "name": "RewardCalculator",
      "outputs": [
        {
          "internalType": "uint256",
          "name": "",
          "type": "uint256"
        }
      ],
      "payable": false,
      "stateMutability": "view",
      "type": "function"
    },
    {
      "constant": true,
      "inputs": [],
      "name": "getRewardToken",
      "outputs": [
        {
          "internalType": "contract IERC20",
          "name": "",
          "type": "address"
        }
      ],
      "payable": false,
      "stateMutability": "view",
      "type": "function"
    },
    {
      "constant": true,
      "inputs": [
        {
          "internalType": "address",
          "name": "_account",
          "type": "address"
        }
      ],
      "name": "earned",
      "outputs": [
        {
          "internalType": "uint256",
          "name": "",
          "type": "uint256"
        }
      ],
      "payable": false,
      "stateMutability": "view",
      "type": "function"
    },
    {
      "constant": true,
      "inputs": [
        {
          "internalType": "address",
          "name": "_account",
          "type": "address"
        }
      ],
      "name": "tokensStaked",
      "outputs": [
        {
          "internalType": "uint256",
          "name": "",
          "type": "uint256"
        }
      ],
      "payable": false,
      "stateMutability": "view",
      "type": "function"
    },
    {
      "constant": false,
      "inputs": [
        {
          "internalType": "uint256",
          "name": "_amount",
          "type": "uint256"
        }
      ],
      "name": "EmergencysendRewardTokens",
      "outputs": [],
      "payable": false,
      "stateMutability": "nonpayable",
      "type": "function"
    },
    {
      "constant": false,
      "inputs": [
        {
          "internalType": "address",
          "name": "receiver",
          "type": "address"
        },
        {
          "internalType": "uint256",
          "name": "_amount",
          "type": "uint256"
        }
      ],
      "name": "EmergencywithdrawRewardTokens",
      "outputs": [],
      "payable": false,
      "stateMutability": "nonpayable",
      "type": "function"
    },
    {
      "constant": false,
      "inputs": [
        {
          "internalType": "address",
          "name": "receiver",
          "type": "address"
        },
        {
          "internalType": "uint256",
          "name": "_amount",
          "type": "uint256"
        }
      ],
      "name": "EmergencywithdrawStakeTokens",
      "outputs": [],
      "payable": false,
      "stateMutability": "nonpayable",
      "type": "function"
    }
  ],
  "bytecode": "0x6080604052670de0b6b3a76400006008556001600955674563918244f40000600a556802b5e3af16b1880000600b556002600c5562201480600d556000600e556001600f55670de0b6b3a764000060105534801561005c57600080fd5b506040516126f33803806126f3833981810160405260a081101561007f57600080fd5b810190808051906020019092919080519060200190929190805190602001909291908051906020019092919080519060200190929190505050828560016000806101000a81548160ff02191690831515021790555080600060016101000a81548173ffffffffffffffffffffffffffffffffffffffff021916908373ffffffffffffffffffffffffffffffffffffffff1602179055505080600360006101000a81548173ffffffffffffffffffffffffffffffffffffffff021916908373ffffffffffffffffffffffffffffffffffffffff1602179055505083600760006101000a81548173ffffffffffffffffffffffffffffffffffffffff021916908373ffffffffffffffffffffffffffffffffffffffff16021790555082600460006101000a81548173ffffffffffffffffffffffffffffffffffffffff021916908373ffffffffffffffffffffffffffffffffffffffff16021790555081600560006101000a81548173ffffffffffffffffffffffffffffffffffffffff021916908373ffffffffffffffffffffffffffffffffffffffff16021790555080600660006101000a81548173ffffffffffffffffffffffffffffffffffffffff021916908373ffffffffffffffffffffffffffffffffffffffff1602179055505050505050612483806102706000396000f3fe608060405234801561001057600080fd5b506004361061014c5760003560e01c806370a08231116100c3578063a12438d71161007c578063a12438d71461054d578063a694fc3a146105a5578063a906421b146105d3578063b7f71cee1461062b578063d1af0c7d14610679578063e8cc00ad146106c35761014c565b806370a082311461041357806372f702f31461046b5780638259e6a0146104b55780638b0e9f3f146104e35780638b7afe2e1461050157806393fd0c0c1461051f5761014c565b80632cf01b55116101155780632cf01b55146102215780632def6620146102795780633f2a554014610283578063412409cf146102cd5780634e745f1f1461031b57806369940d79146103c95761014c565b80628cc262146101515780630dc0ba72146101a9578063137ee36e146101c757806316f0115b146101e557806318160ddd14610203575b600080fd5b6101936004803603602081101561016757600080fd5b81019080803573ffffffffffffffffffffffffffffffffffffffff1690602001909291905050506106cd565b6040518082815260200191505060405180910390f35b6101b161071e565b6040518082815260200191505060405180910390f35b6101cf610723565b6040518082815260200191505060405180910390f35b6101ed610738565b6040518082815260200191505060405180910390f35b61020b61073e565b6040518082815260200191505060405180910390f35b6102636004803603602081101561023757600080fd5b81019080803573ffffffffffffffffffffffffffffffffffffffff169060200190929190505050610748565b6040518082815260200191505060405180910390f35b610281610799565b005b61028b610808565b604051808273ffffffffffffffffffffffffffffffffffffffff1673ffffffffffffffffffffffffffffffffffffffff16815260200191505060405180910390f35b610319600480360360408110156102e357600080fd5b81019080803573ffffffffffffffffffffffffffffffffffffffff1690602001909291908035906020019092919050505061082e565b005b61035d6004803603602081101561033157600080fd5b81019080803573ffffffffffffffffffffffffffffffffffffffff169060200190929190505050610a4b565b604051808873ffffffffffffffffffffffffffffffffffffffff1673ffffffffffffffffffffffffffffffffffffffff16815260200187815260200186815260200185815260200184815260200183815260200182815260200197505050505050505060405180910390f35b6103d1610aad565b604051808273ffffffffffffffffffffffffffffffffffffffff1673ffffffffffffffffffffffffffffffffffffffff16815260200191505060405180910390f35b6104556004803603602081101561042957600080fd5b81019080803573ffffffffffffffffffffffffffffffffffffffff169060200190929190505050610ad7565b6040518082815260200191505060405180910390f35b610473610b20565b604051808273ffffffffffffffffffffffffffffffffffffffff1673ffffffffffffffffffffffffffffffffffffffff16815260200191505060405180910390f35b6104e1600480360360208110156104cb57600080fd5b8101908080359060200190929190505050610b46565b005b6104eb610c0a565b6040518082815260200191505060405180910390f35b610509610c10565b6040518082815260200191505060405180910390f35b61054b6004803603602081101561053557600080fd5b8101908080359060200190929190505050610c16565b005b61058f6004803603602081101561056357600080fd5b81019080803573ffffffffffffffffffffffffffffffffffffffff169060200190929190505050610e66565b6040518082815260200191505060405180910390f35b6105d1600480360360208110156105bb57600080fd5b8101908080359060200190929190505050610e7e565b005b610615600480360360208110156105e957600080fd5b81019080803573ffffffffffffffffffffffffffffffffffffffff16906020019092919050505061121c565b6040518082815260200191505060405180910390f35b6106776004803603604081101561064157600080fd5b81019080803573ffffffffffffffffffffffffffffffffffffffff1690602001909291908035906020019092919050505061129c565b005b6106816114b9565b604051808273ffffffffffffffffffffffffffffffffffffffff1673ffffffffffffffffffffffffffffffffffffffff16815260200191505060405180910390f35b6106cb6114df565b005b600080601460008473ffffffffffffffffffffffffffffffffffffffff1673ffffffffffffffffffffffffffffffffffffffff16815260200190815260200160002090508060060154915050919050565b605a81565b60008061072f3361121c565b90508091505090565b60125481565b6000600154905090565b600080601460008473ffffffffffffffffffffffffffffffffffffffff1673ffffffffffffffffffffffffffffffffffffffff16815260200190815260200160002090508060010154915050919050565b6000601460003373ffffffffffffffffffffffffffffffffffffffff1673ffffffffffffffffffffffffffffffffffffffff16815260200190815260200160002090506107e981600101546115f8565b6107f1611795565b600081600201819055506000816003018190555050565b600360009054906101000a900473ffffffffffffffffffffffffffffffffffffffff1681565b600360009054906101000a900473ffffffffffffffffffffffffffffffffffffffff1673ffffffffffffffffffffffffffffffffffffffff163373ffffffffffffffffffffffffffffffffffffffff16146108f1576040517f08c379a00000000000000000000000000000000000000000000000000000000081526004018080602001828103825260208152602001807f43616c6c6572206973206e6f7420726577617264206469737472696275746f7281525060200191505060405180910390fd5b600060019054906101000a900473ffffffffffffffffffffffffffffffffffffffff1673ffffffffffffffffffffffffffffffffffffffff1663a9059cbb83836040518363ffffffff1660e01b8152600401808373ffffffffffffffffffffffffffffffffffffffff1673ffffffffffffffffffffffffffffffffffffffff16815260200182815260200192505050602060405180830381600087803b15801561099a57600080fd5b505af11580156109ae573d6000803e3d6000fd5b505050506040513d60208110156109c457600080fd5b8101908080519060200190929190505050610a47576040517f08c379a000000000000000000000000000000000000000000000000000000000815260040180806020018281038252601e8152602001807f4e6f7420656e6f75676820746f6b656e73206f6e20636f6e747261637421000081525060200191505060405180910390fd5b5050565b60146020528060005260406000206000915090508060000160009054906101000a900473ffffffffffffffffffffffffffffffffffffffff16908060010154908060020154908060030154908060040154908060050154908060060154905087565b6000600760009054906101000a900473ffffffffffffffffffffffffffffffffffffffff16905090565b6000600260008373ffffffffffffffffffffffffffffffffffffffff1673ffffffffffffffffffffffffffffffffffffffff168152602001908152602001600020549050919050565b600060019054906101000a900473ffffffffffffffffffffffffffffffffffffffff1681565b600460009054906101000a900473ffffffffffffffffffffffffffffffffffffffff1673ffffffffffffffffffffffffffffffffffffffff163373ffffffffffffffffffffffffffffffffffffffff1614610bec576040517f08c379a00000000000000000000000000000000000000000000000000000000081526004018080602001828103825260238152602001806123de6023913960400191505060405180910390fd5b610c018160125461193990919063ffffffff16565b60128190555050565b60095481565b60115481565b600360009054906101000a900473ffffffffffffffffffffffffffffffffffffffff1673ffffffffffffffffffffffffffffffffffffffff163373ffffffffffffffffffffffffffffffffffffffff1614610cd9576040517f08c379a00000000000000000000000000000000000000000000000000000000081526004018080602001828103825260208152602001807f43616c6c6572206973206e6f7420726577617264206469737472696275746f7281525060200191505060405180910390fd5b600760009054906101000a900473ffffffffffffffffffffffffffffffffffffffff1673ffffffffffffffffffffffffffffffffffffffff166323b872dd3330846040518463ffffffff1660e01b8152600401808473ffffffffffffffffffffffffffffffffffffffff1673ffffffffffffffffffffffffffffffffffffffff1681526020018373ffffffffffffffffffffffffffffffffffffffff1673ffffffffffffffffffffffffffffffffffffffff1681526020018281526020019350505050602060405180830381600087803b158015610db657600080fd5b505af1158015610dca573d6000803e3d6000fd5b505050506040513d6020811015610de057600080fd5b8101908080519060200190929190505050610e63576040517f08c379a00000000000000000000000000000000000000000000000000000000081526004018080602001828103825260198152602001807f5472616e73666572696e67206e6f7420617070726f766564210000000000000081525060200191505060405180910390fd5b50565b60156020528060005260406000206000915090505481565b6000610e95600a548361195590919063ffffffff16565b90506000610eb568056bc75e2d631000008361198490919063ffffffff16565b90506000610ece600b548361195590919063ffffffff16565b90506000610eee68056bc75e2d631000008361198490919063ffffffff16565b905060008190506000829050600060019054906101000a900473ffffffffffffffffffffffffffffffffffffffff1673ffffffffffffffffffffffffffffffffffffffff166323b872dd33600660009054906101000a900473ffffffffffffffffffffffffffffffffffffffff16856040518463ffffffff1660e01b8152600401808473ffffffffffffffffffffffffffffffffffffffff1673ffffffffffffffffffffffffffffffffffffffff1681526020018373ffffffffffffffffffffffffffffffffffffffff1673ffffffffffffffffffffffffffffffffffffffff1681526020018281526020019350505050602060405180830381600087803b158015610ff957600080fd5b505af115801561100d573d6000803e3d6000fd5b505050506040513d602081101561102357600080fd5b810190808051906020019092919050505050600060019054906101000a900473ffffffffffffffffffffffffffffffffffffffff1673ffffffffffffffffffffffffffffffffffffffff166323b872dd33600560009054906101000a900473ffffffffffffffffffffffffffffffffffffffff16846040518463ffffffff1660e01b8152600401808473ffffffffffffffffffffffffffffffffffffffff1673ffffffffffffffffffffffffffffffffffffffff1681526020018373ffffffffffffffffffffffffffffffffffffffff1673ffffffffffffffffffffffffffffffffffffffff1681526020018281526020019350505050602060405180830381600087803b15801561113457600080fd5b505af1158015611148573d6000803e3d6000fd5b505050506040513d602081101561115e57600080fd5b8101908080519060200190929190505050506000611185868961199d90919063ffffffff16565b905061119c8160095461193990919063ffffffff16565b6009819055506111ac33826119aa565b60133390806001815401808255809150509060018203906000526020600020016000909192909190916101000a81548173ffffffffffffffffffffffffffffffffffffffff021916908373ffffffffffffffffffffffffffffffffffffffff160217905550505050505050505050565b600080601460008473ffffffffffffffffffffffffffffffffffffffff1673ffffffffffffffffffffffffffffffffffffffff1681526020019081526020016000209050600081600201544203905060006064808460010154600d54600c548161128257fe5b04850202028161128e57fe5b049050809350505050919050565b600360009054906101000a900473ffffffffffffffffffffffffffffffffffffffff1673ffffffffffffffffffffffffffffffffffffffff163373ffffffffffffffffffffffffffffffffffffffff161461135f576040517f08c379a00000000000000000000000000000000000000000000000000000000081526004018080602001828103825260208152602001807f43616c6c6572206973206e6f7420726577617264206469737472696275746f7281525060200191505060405180910390fd5b600760009054906101000a900473ffffffffffffffffffffffffffffffffffffffff1673ffffffffffffffffffffffffffffffffffffffff1663a9059cbb83836040518363ffffffff1660e01b8152600401808373ffffffffffffffffffffffffffffffffffffffff1673ffffffffffffffffffffffffffffffffffffffff16815260200182815260200192505050602060405180830381600087803b15801561140857600080fd5b505af115801561141c573d6000803e3d6000fd5b505050506040513d602081101561143257600080fd5b81019080805190602001909291905050506114b5576040517f08c379a000000000000000000000000000000000000000000000000000000000815260040180806020018281038252601e8152602001807f4e6f7420656e6f75676820746f6b656e73206f6e20636f6e747261637421000081525060200191505060405180910390fd5b5050565b600760009054906101000a900473ffffffffffffffffffffffffffffffffffffffff1681565b600460009054906101000a900473ffffffffffffffffffffffffffffffffffffffff1673ffffffffffffffffffffffffffffffffffffffff163373ffffffffffffffffffffffffffffffffffffffff1614611585576040517f08c379a00000000000000000000000000000000000000000000000000000000081526004018080602001828103825260238152602001806123de6023913960400191505060405180910390fd5b600460009054906101000a900473ffffffffffffffffffffffffffffffffffffffff1673ffffffffffffffffffffffffffffffffffffffff166108fc6115ca30610ad7565b9081150290604051600060405180830381858888f193505050501580156115f5573d6000803e3d6000fd5b50565b3361160281611c3f565b15611658576040517f08c379a00000000000000000000000000000000000000000000000000000000081526004018080602001828103825260248152602001806124016024913960400191505060405180910390fd5b600082116116ce576040517f08c379a00000000000000000000000000000000000000000000000000000000081526004018080602001828103825260118152602001807f43616e6e6f74207769746864726177203000000000000000000000000000000081525060200191505060405180910390fd5b6000601460003373ffffffffffffffffffffffffffffffffffffffff1673ffffffffffffffffffffffffffffffffffffffff168152602001908152602001600020905042816004018190555061173183826006015461193990919063ffffffff16565b816006018190555061174283611c8a565b3373ffffffffffffffffffffffffffffffffffffffff167f7084f5476618d8e60b11ef0d7d3f06914655adb8793e28ff7f018d4c76d505d5846040518082815260200191505060405180910390a2505050565b3361179f81611c3f565b156117f5576040517f08c379a00000000000000000000000000000000000000000000000000000000081526004018080602001828103825260248152602001806124016024913960400191505060405180910390fd5b60006118003361121c565b9050600760009054906101000a900473ffffffffffffffffffffffffffffffffffffffff1673ffffffffffffffffffffffffffffffffffffffff1663a9059cbb33836040518363ffffffff1660e01b8152600401808373ffffffffffffffffffffffffffffffffffffffff1673ffffffffffffffffffffffffffffffffffffffff16815260200182815260200192505050602060405180830381600087803b1580156118ab57600080fd5b505af11580156118bf573d6000803e3d6000fd5b505050506040513d60208110156118d557600080fd5b8101908080519060200190929190505050503373ffffffffffffffffffffffffffffffffffffffff167fe2403640ba68fed3a2f88b7557551d1993f84b99bb10ff833f0cf8db0c5e0486826040518082815260200191505060405180910390a25050565b60008082840190508381101561194b57fe5b8091505092915050565b6000808284029050600084148061197457508284828161197157fe5b04145b61197a57fe5b8091505092915050565b60008082848161199057fe5b0490508091505092915050565b6000818303905092915050565b816119b481611c3f565b15611a0a576040517f08c379a00000000000000000000000000000000000000000000000000000000081526004018080602001828103825260248152602001806124016024913960400191505060405180910390fd5b600854821015611a82576040517f08c379a00000000000000000000000000000000000000000000000000000000081526004018080602001828103825260168152602001807f496e76616c6964207374616b696e6720616d6f756e740000000000000000000081525060200191505060405180910390fd5b6000601460003373ffffffffffffffffffffffffffffffffffffffff1673ffffffffffffffffffffffffffffffffffffffff1681526020019081526020016000209050611adc83826001015461193990919063ffffffff16565b8160010181905550428160020181905550611b01605a4261193990919063ffffffff16565b8160030181905550611b128461121c565b8160050181905550600073ffffffffffffffffffffffffffffffffffffffff168160000160009054906101000a900473ffffffffffffffffffffffffffffffffffffffff1673ffffffffffffffffffffffffffffffffffffffff161415611bce57338160000160006101000a81548173ffffffffffffffffffffffffffffffffffffffff021916908373ffffffffffffffffffffffffffffffffffffffff16021790555042816004018190555060008160060181905550611be1565b4281600201819055504281600401819055505b611beb8484611e3f565b8373ffffffffffffffffffffffffffffffffffffffff167f9e71bc8eea02a63969f509818f2dafb9254532904319f9dbda79b67bd34a5f3d846040518082815260200191505060405180910390a250505050565b60008060007fc5d2460186f7233c927e7db2dcc703c0e500b653ca82273b7bfad8045d85a47060001b9050833f9150808214158015611c8157506000801b8214155b92505050919050565b6000809054906101000a900460ff16611d0b576040517f08c379a000000000000000000000000000000000000000000000000000000000815260040180806020018281038252601f8152602001807f5265656e7472616e637947756172643a207265656e7472616e742063616c6c0081525060200191505060405180910390fd5b60008060006101000a81548160ff021916908315150217905550611d3a8160015461199d90919063ffffffff16565b600181905550611d9281600260003373ffffffffffffffffffffffffffffffffffffffff1673ffffffffffffffffffffffffffffffffffffffff1681526020019081526020016000205461199d90919063ffffffff16565b600260003373ffffffffffffffffffffffffffffffffffffffff1673ffffffffffffffffffffffffffffffffffffffff16815260200190815260200160002081905550611e223382600060019054906101000a900473ffffffffffffffffffffffffffffffffffffffff1673ffffffffffffffffffffffffffffffffffffffff166120c19092919063ffffffff16565b60016000806101000a81548160ff02191690831515021790555050565b6000809054906101000a900460ff16611ec0576040517f08c379a000000000000000000000000000000000000000000000000000000000815260040180806020018281038252601f8152602001807f5265656e7472616e637947756172643a207265656e7472616e742063616c6c0081525060200191505060405180910390fd5b60008060006101000a81548160ff021916908315150217905550611eef8160015461193990919063ffffffff16565b600181905550611f4781600260008573ffffffffffffffffffffffffffffffffffffffff1673ffffffffffffffffffffffffffffffffffffffff1681526020019081526020016000205461193990919063ffffffff16565b600260008473ffffffffffffffffffffffffffffffffffffffff1673ffffffffffffffffffffffffffffffffffffffff16815260200190815260200160002081905550600060019054906101000a900473ffffffffffffffffffffffffffffffffffffffff1673ffffffffffffffffffffffffffffffffffffffff166323b872dd3330846040518463ffffffff1660e01b8152600401808473ffffffffffffffffffffffffffffffffffffffff1673ffffffffffffffffffffffffffffffffffffffff1681526020018373ffffffffffffffffffffffffffffffffffffffff1673ffffffffffffffffffffffffffffffffffffffff1681526020018281526020019350505050602060405180830381600087803b15801561206757600080fd5b505af115801561207b573d6000803e3d6000fd5b505050506040513d602081101561209157600080fd5b81019080805190602001909291905050505060016000806101000a81548160ff0219169083151502179055505050565b61218d838473ffffffffffffffffffffffffffffffffffffffff1663a9059cbb905060e01b8484604051602401808373ffffffffffffffffffffffffffffffffffffffff1673ffffffffffffffffffffffffffffffffffffffff16815260200182815260200192505050604051602081830303815290604052907bffffffffffffffffffffffffffffffffffffffffffffffffffffffff19166020820180517bffffffffffffffffffffffffffffffffffffffffffffffffffffffff8381831617835250505050612192565b505050565b6121b18273ffffffffffffffffffffffffffffffffffffffff16611c3f565b612223576040517f08c379a000000000000000000000000000000000000000000000000000000000815260040180806020018281038252601f8152602001807f5361666545524332303a2063616c6c20746f206e6f6e2d636f6e74726163740081525060200191505060405180910390fd5b600060608373ffffffffffffffffffffffffffffffffffffffff16836040518082805190602001908083835b60208310612272578051825260208201915060208101905060208303925061224f565b6001836020036101000a0380198251168184511680821785525050505050509050019150506000604051808303816000865af19150503d80600081146122d4576040519150601f19603f3d011682016040523d82523d6000602084013e6122d9565b606091505b509150915081612351576040517f08c379a00000000000000000000000000000000000000000000000000000000081526004018080602001828103825260208152602001807f5361666545524332303a206c6f772d6c6576656c2063616c6c206661696c656481525060200191505060405180910390fd5b6000815111156123d75780806020019051602081101561237057600080fd5b81019080805190602001909291905050506123d6576040517f08c379a000000000000000000000000000000000000000000000000000000000815260040180806020018281038252602a815260200180612425602a913960400191505060405180910390fd5b5b5050505056fe6f6e6c79206f776e65722063616e2072756e2074686973207472616e73616374696f6e4f6e6c792065787465726e616c206f776e6564206163636f756e747320616c6c6f7765645361666545524332303a204552433230206f7065726174696f6e20646964206e6f742073756363656564a265627a7a72315820ac4b73709773d857cc6554b9c5e79a0fa73a53453c2c5cd48762b7f3d282dc2a64736f6c63430005110032",
  "source": "\r\n// SPDX-License-Identifier: UNLICENSED\r\n\r\npragma solidity ^0.5.0;\r\nimport './SafeMath.sol';\r\nimport './IERC20.sol';\r\nimport './Address.sol';\r\nimport './SafeERC20.sol';\r\nimport './ReentrancyGuard.sol';\r\nimport './IRewardsDistributionRecipient.sol';\r\nimport './RewardsDistributionRecipient.sol';\r\nimport './StakingTokenWrapper.sol';\r\nimport './StableMath.sol';\r\n// interface IERC20 {\r\n\r\n//     function totalSupply() external view returns (uint256);\r\n\r\n//     function balanceOf(address account) external view returns (uint256);\r\n\r\n//     function transfer(address recipient, uint256 amount) external returns (bool);\r\n\r\n//     function allowance(address owner, address spender) external view returns (uint256);\r\n\r\n//     function approve(address spender, uint256 amount) external returns (bool);\r\n\r\n//     function transferFrom(address sender, address recipient, uint256 amount) external returns (bool);\r\n\r\n//     event Transfer(address indexed from, address indexed to, uint256 value);\r\n\r\n//     event Approval(address indexed owner, address indexed spender, uint256 value);\r\n// }\r\n// library SafeMath {\r\n//   function mul(uint256 a, uint256 b) internal pure returns (uint256) {\r\n//     uint256 c = a * b;\r\n//     assert(a == 0 || c / a == b);\r\n//     return c;\r\n//   }\r\n\r\n//   function div(uint256 a, uint256 b) internal pure returns (uint256) {\r\n//     // assert(b > 0); // Solidity automatically throws when dividing by 0\r\n//     uint256 c = a / b;\r\n//     // assert(a == b * c + a % b); // There is no case in which this doesn't hold\r\n//     return c;\r\n//   }\r\n\r\n//   function sub(uint256 a, uint256 b) internal pure returns (uint256) {\r\n//     //assert(b <= a);\r\n//     return a - b;\r\n//   }\r\n\r\n//   function add(uint256 a, uint256 b) internal pure returns (uint256) {\r\n//     uint256 c = a + b;\r\n//     assert(c >= a);\r\n//     return c;\r\n//   }\r\n// }\r\n\r\n// library SafeERC20 {\r\n//     using SafeMath for uint256;\r\n//     using Address for address;\r\n\r\n//     function safeTransfer(IERC20 token, address to, uint256 value) internal {\r\n//         callOptionalReturn(token, abi.encodeWithSelector(token.transfer.selector, to, value));\r\n//     }\r\n\r\n//     function safeTransferFrom(IERC20 token, address from, address to, uint256 value) internal {\r\n//         callOptionalReturn(token, abi.encodeWithSelector(token.transferFrom.selector, from, to, value));\r\n//     }\r\n\r\n//     function safeApprove(IERC20 token, address spender, uint256 value) internal {\r\n//         // safeApprove should only be called when setting an initial allowance,\r\n//         // or when resetting it to zero. To increase and decrease it, use\r\n//         // 'safeIncreaseAllowance' and 'safeDecreaseAllowance'\r\n//         // solhint-disable-next-line max-line-length\r\n//         require((value == 0) || (token.allowance(address(this), spender) == 0),\r\n//             \"SafeERC20: approve from non-zero to non-zero allowance\"\r\n//         );\r\n//         callOptionalReturn(token, abi.encodeWithSelector(token.approve.selector, spender, value));\r\n//     }\r\n\r\n//     function safeIncreaseAllowance(IERC20 token, address spender, uint256 value) internal {\r\n//         uint256 newAllowance = token.allowance(address(this), spender).add(value);\r\n//         callOptionalReturn(token, abi.encodeWithSelector(token.approve.selector, spender, newAllowance));\r\n//     }\r\n\r\n//     function safeDecreaseAllowance(IERC20 token, address spender, uint256 value) internal {\r\n//         uint256 newAllowance = token.allowance(address(this), spender).sub(value);\r\n//         callOptionalReturn(token, abi.encodeWithSelector(token.approve.selector, spender, newAllowance));\r\n//     }\r\n\r\n//     function callOptionalReturn(IERC20 token, bytes memory data) private {\r\n//         // We need to perform a low level call here, to bypass Solidity's return data size checking mechanism, since\r\n//         // we're implementing it ourselves.\r\n\r\n//         // A Solidity high level call has three parts:\r\n//         //  1. The target address is checked to verify it contains contract code\r\n//         //  2. The call itself is made, and success asserted\r\n//         //  3. The return value is decoded, which in turn checks the size of the returned data.\r\n//         // solhint-disable-next-line max-line-length\r\n//         require(address(token).isContract(), \"SafeERC20: call to non-contract\");\r\n\r\n//         // solhint-disable-next-line avoid-low-level-calls\r\n//         (bool success, bytes memory returndata) = address(token).call(data);\r\n//         require(success, \"SafeERC20: low-level call failed\");\r\n\r\n//         if (returndata.length > 0) { // Return data is optional\r\n//             // solhint-disable-next-line max-line-length\r\n//             require(abi.decode(returndata, (bool)), \"SafeERC20: ERC20 operation did not succeed\");\r\n//         }\r\n//     }\r\n// }\r\n// library Address {\r\n\r\n//     function isContract(address account) internal view returns (bool) {\r\n//         // According to EIP-1052, 0x0 is the value returned for not-yet created accounts\r\n//         // and 0xc5d2460186f7233c927e7db2dcc703c0e500b653ca82273b7bfad8045d85a470 is returned\r\n//         // for accounts without code, i.e. `keccak256('')`\r\n//         bytes32 codehash;\r\n//         bytes32 accountHash = 0xc5d2460186f7233c927e7db2dcc703c0e500b653ca82273b7bfad8045d85a470;\r\n//         // solhint-disable-next-line no-inline-assembly\r\n//         assembly { codehash := extcodehash(account) }\r\n//         return (codehash != accountHash && codehash != 0x0);\r\n//     }\r\n\r\n//     /**\r\n//      * @dev Converts an `address` into `address payable`. Note that this is\r\n//      * simply a type cast: the actual underlying value is not changed.\r\n//      *\r\n//      * _Available since v2.4.0._\r\n//      */\r\n//     function toPayable(address account) internal pure returns (address payable) {\r\n//         return address(uint160(account));\r\n//     }\r\n\r\n//     /**\r\n//      * @dev Replacement for Solidity's `transfer`: sends `amount` wei to\r\n//      * `recipient`, forwarding all available gas and reverting on errors.\r\n//      *\r\n//      * https://eips.ethereum.org/EIPS/eip-1884[EIP1884] increases the gas cost\r\n//      * of certain opcodes, possibly making contracts go over the 2300 gas limit\r\n//      * imposed by `transfer`, making them unable to receive funds via\r\n//      * `transfer`. {sendValue} removes this limitation.\r\n//      *\r\n//      * https://diligence.consensys.net/posts/2019/09/stop-using-soliditys-transfer-now/[Learn more].\r\n//      *\r\n//      * IMPORTANT: because control is transferred to `recipient`, care must be\r\n//      * taken to not create reentrancy vulnerabilities. Consider using\r\n//      * {ReentrancyGuard} or the\r\n//      * https://solidity.readthedocs.io/en/v0.5.11/security-considerations.html#use-the-checks-effects-interactions-pattern[checks-effects-interactions pattern].\r\n//      *\r\n//      * _Available since v2.4.0._\r\n//      */\r\n//     function sendValue(address payable recipient, uint256 amount) internal {\r\n//         require(address(this).balance >= amount, \"Address: insufficient balance\");\r\n\r\n//         // solhint-disable-next-line avoid-call-value\r\n//         (bool success, ) = recipient.call.value(amount)(\"\");\r\n//         require(success, \"Address: unable to send value, recipient may have reverted\");\r\n//     }\r\n// }\r\n// contract ReentrancyGuard {\r\n//     bool private _notEntered;\r\n\r\n//     constructor () internal {\r\n\r\n//         _notEntered = true;\r\n//     }\r\n\r\n//     modifier nonReentrant() {\r\n//         // On the first call to nonReentrant, _notEntered will be true\r\n//         require(_notEntered, \"ReentrancyGuard: reentrant call\");\r\n\r\n//         // Any calls to nonReentrant after this point will fail\r\n//         _notEntered = false;\r\n\r\n//         _;\r\n\r\n//         // By storing the original value once again, a refund is triggered (see\r\n//         // https://eips.ethereum.org/EIPS/eip-2200)\r\n//         _notEntered = true;\r\n//     }\r\n// }\r\n// contract StakingTokenWrapper is ReentrancyGuard {\r\n\r\n//     using SafeMath for uint256;\r\n//     using SafeERC20 for IERC20;\r\n\r\n//     IERC20 public stakingToken;\r\n   \r\n    \r\n    \r\n//     uint256 internal _totalSupply;\r\n//     mapping(address => uint256) private _balances;\r\n\r\n//     constructor(address _stakingToken ) internal {\r\n//         stakingToken = IERC20(_stakingToken);\r\n       \r\n//     }\r\n\r\n//     function totalSupply()\r\n//         public\r\n//         view\r\n//         returns (uint256)\r\n//     {\r\n//         return _totalSupply;\r\n//     }\r\n\r\n//     function balanceOf(address _account)\r\n//         public\r\n//         view\r\n//         returns (uint256)\r\n//     {\r\n//         return _balances[_account];\r\n//     }\r\n\r\n//     function _stake(address _beneficiary, uint256 _amount)\r\n//         internal\r\n//         nonReentrant\r\n//     {\r\n//         _totalSupply = _totalSupply.add(_amount);\r\n//         _balances[_beneficiary] = _balances[_beneficiary].add(_amount);\r\n//         stakingToken.transferFrom(msg.sender, address(this), _amount);\r\n//     }\r\n\r\n//     function _withdraw(uint256 _amount)\r\n//         internal\r\n//         nonReentrant\r\n//     {\r\n//         _totalSupply = _totalSupply.sub(_amount);\r\n//         _balances[msg.sender] = _balances[msg.sender].sub(_amount);\r\n//          stakingToken.safeTransfer(msg.sender, _amount);\r\n//     }\r\n// }\r\n// interface IRewardsDistributionRecipient {\r\n//     // function notifyRewardAmount(uint256 reward) external;\r\n//     function getRewardToken() external view returns (IERC20);\r\n// }\r\n// contract RewardsDistributionRecipient is IRewardsDistributionRecipient {\r\n\r\n//     // @abstract\r\n//     // function notifyRewardAmount(uint256 reward) external;\r\n//     function getRewardToken() external view returns (IERC20);\r\n\r\n//     // This address has the ability to distribute the rewards\r\n//     address public rewardsDistributor;\r\n\r\n//     /** @dev Recipient is a module, governed by mStable governance */\r\n//     constructor(address _rewardsDistributor) \r\n//         internal\r\n//     {\r\n//         rewardsDistributor = _rewardsDistributor;\r\n//     }\r\n\r\n//     /**\r\n//      * @dev Only the rewards distributor can notify about rewards\r\n//      */\r\n//     modifier onlyRewardsDistributor() {\r\n//         require(msg.sender == rewardsDistributor, \"Caller is not reward distributor\");\r\n//         _;\r\n//     }\r\n// }\r\n// library StableMath {\r\n\r\n//     using SafeMath for uint256;\r\n\r\n//     uint256 private constant FULL_SCALE = 1e18;\r\n\r\n//     uint256 private constant RATIO_SCALE = 1e8;\r\n\r\n//     function getFullScale() internal pure returns (uint256) {\r\n//         return FULL_SCALE;\r\n//     }\r\n\r\n//     function getRatioScale() internal pure returns (uint256) {\r\n//         return RATIO_SCALE;\r\n//     }\r\n\r\n//     function scaleInteger(uint256 x)\r\n//         internal\r\n//         pure\r\n//         returns (uint256)\r\n//     {\r\n//         return x.mul(FULL_SCALE);\r\n//     }\r\n\r\n//     function mulTruncate(uint256 x, uint256 y)\r\n//         internal\r\n//         pure\r\n//         returns (uint256)\r\n//     {\r\n//         return mulTruncateScale(x, y, FULL_SCALE);\r\n//     }\r\n\r\n//     function mulTruncateScale(uint256 x, uint256 y, uint256 scale)\r\n//         internal\r\n//         pure\r\n//         returns (uint256)\r\n//     {\r\n//         // e.g. assume scale = fullScale\r\n//         // z = 10e18 * 9e17 = 9e36\r\n//         uint256 z = x.mul(y);\r\n//         // return 9e38 / 1e18 = 9e18\r\n//         return z.div(scale);\r\n//     }\r\n\r\n//     function mulTruncateCeil(uint256 x, uint256 y)\r\n//         internal\r\n//         pure\r\n//         returns (uint256)\r\n//     {\r\n//         // e.g. 8e17 * 17268172638 = 138145381104e17\r\n//         uint256 scaled = x.mul(y);\r\n//         // e.g. 138145381104e17 + 9.99...e17 = 138145381113.99...e17\r\n//         uint256 ceil = scaled.add(FULL_SCALE.sub(1));\r\n//         // e.g. 13814538111.399...e18 / 1e18 = 13814538111\r\n//         return ceil.div(FULL_SCALE);\r\n//     }\r\n\r\n//     function divPrecisely(uint256 x, uint256 y)\r\n//         internal\r\n//         pure\r\n//         returns (uint256)\r\n//     {\r\n//         // e.g. 8e18 * 1e18 = 8e36\r\n//         uint256 z = x.mul(FULL_SCALE);\r\n//         // e.g. 8e36 / 10e18 = 8e17\r\n//         return z.div(y);\r\n//     }\r\n\r\n//     function mulRatioTruncate(uint256 x, uint256 ratio)\r\n//         internal\r\n//         pure\r\n//         returns (uint256 c)\r\n//     {\r\n//         return mulTruncateScale(x, ratio, RATIO_SCALE);\r\n//     }\r\n\r\n//     function mulRatioTruncateCeil(uint256 x, uint256 ratio)\r\n//         internal\r\n//         pure\r\n//         returns (uint256)\r\n//     {\r\n//         // e.g. How much mAsset should I burn for this bAsset (x)?\r\n//         // 1e18 * 1e8 = 1e26\r\n//         uint256 scaled = x.mul(ratio);\r\n//         // 1e26 + 9.99e7 = 100..00.999e8\r\n//         uint256 ceil = scaled.add(RATIO_SCALE.sub(1));\r\n//         // return 100..00.999e8 / 1e8 = 1e18\r\n//         return ceil.div(RATIO_SCALE);\r\n//     }\r\n\r\n//     function divRatioPrecisely(uint256 x, uint256 ratio)\r\n//         internal\r\n//         pure\r\n//         returns (uint256 c)\r\n//     {\r\n//         // e.g. 1e14 * 1e8 = 1e22\r\n//         uint256 y = x.mul(RATIO_SCALE);\r\n//         // return 1e22 / 1e12 = 1e10\r\n//         return y.div(ratio);\r\n//     }\r\n\r\n//     function min(uint256 x, uint256 y)\r\n//         internal\r\n//         pure\r\n//         returns (uint256)\r\n//     {\r\n//         return x > y ? y : x;\r\n//     }\r\n\r\n//     function max(uint256 x, uint256 y)\r\n//         internal\r\n//         pure\r\n//         returns (uint256)\r\n//     {\r\n//         return x > y ? x : y;\r\n//     }\r\n\r\n//     function clamp(uint256 x, uint256 upperBound)\r\n//         internal\r\n//         pure\r\n//         returns (uint256)\r\n//     {\r\n//         return x > upperBound ? upperBound : x;\r\n//     }\r\n// }\r\n\r\ncontract BLldToBldStake is StakingTokenWrapper, RewardsDistributionRecipient{\r\n\r\n    // ***************************************************   \r\n    // ****************** State Variables ****************    \r\n    // ***************************************************      \r\n    address payable owner;\r\n    address payable BuyBurn;\r\n    address payable treasury;\r\n    \r\n    IERC20 public rewardsToken;\r\n    uint256 minStakeAmount = 1 * 1e18 ;\r\n    uint256 public totalStake = 1; \r\n    //     ************ percentages ***********\r\n    uint256 internal Fee = 5e18; // 5%\r\n    uint256 internal feeDuducer = 5e19; // 1/5\r\n    \r\n    uint256 internal rewardPercent = 2; // 200%\r\n    uint256 internal blocksPerYear = 2102400; // 4 blocks / min\r\n    // uint256 internal rewardPercentPerBlock = (rewardPercent / blocksPerYear) * 1e24; // 951293759512937500 %\r\n    \r\n    //****************** DAYS ********************\r\n    // uint256 public constant YEAR_DURATION   = 31557600 seconds;\r\n    uint256 public constant YEAR_DURATION   = 90 seconds;\r\n    uint256 internal stakingDuration = 0;\r\n    uint256 internal poolId = 1 ;\r\n    uint256 internal ethManti = 1e18;\r\n    \r\n    uint256 public contractBalance;\r\n    uint256 public pool;\r\n    address[] rights;\r\n    \r\n\r\n// ********************************************    \r\n// *************** EVENTS ********************\r\n// ********************************************\r\n\r\n    event Staked(address indexed user, uint256 amount);\r\n    event Withdrawn(address indexed user, uint256 amount);\r\n    event RewardPaid(address indexed user, uint256 reward);\r\n    event claiming(uint rewardInContract);\r\n    event checker( uint Withdraw);\r\n    \r\n// ********************************************    \r\n// *************** CONSTRUCTOR ********************\r\n// ********************************************\r\n\r\n    constructor( \r\n\t\taddress _stakingToken,\r\n\t\taddress _rewardsToken,\r\n\t\taddress payable _rewardsDistributor,\r\n\t\taddress payable _buyAndBurn,\r\n\t\taddress payable _treasury\r\n\t) public\r\n\t\tStakingTokenWrapper(_stakingToken)\r\n\t\tRewardsDistributionRecipient(_rewardsDistributor)\r\n\t{\r\n\t\trewardsToken = IERC20(_rewardsToken);\r\n\t\towner = _rewardsDistributor;\r\n\t\tBuyBurn = _buyAndBurn;\r\n\t\ttreasury = _treasury;\r\n    }\r\n// ********************************************    \r\n// *************** MODIFIERS ********************\r\n// ********************************************\r\n \r\n \r\n \r\n    modifier isAccount(address _account) {\r\n        require(!Address.isContract(_account), \"Only external owned accounts allowed\");\r\n        _;\r\n    }\r\n    modifier onlyOwner(){\r\n        require(msg.sender == owner,'only owner can run this transaction');\r\n        _;\r\n    }\r\n\r\n\r\n// ********************************************    \r\n// *************** STRUCTS ********************\r\n// ********************************************\r\n    \r\n    struct Staker {\r\n        address user;\r\n        uint256 userStakedTokens;\r\n        uint256 stakeStarted;\r\n        uint256 stakeEnded;\r\n        uint256 lastUpdate; \r\n        uint256 reward;\r\n        uint256 withdrawn; \r\n    }\r\n  \r\n    struct stakerReward{\r\n        uint paid;\r\n    }\r\n\r\n// ********************************************    \r\n// *************** MAPPING ********************\r\n// ********************************************\r\n\r\n    mapping (address =>  Staker) public stakerInfo;\r\n      \r\n    mapping (address => uint256) public userRewardsPaid;\r\n    \r\n    mapping (address => mapping(uint256 => stakerReward)) rewardChecker;\r\n      \r\n\r\n// ********************************************    \r\n// *************** POOL REWARD ********************\r\n// ********************************************\r\n\r\n\r\n  \r\n    \r\n    \r\n    \r\n    function createPool(uint256 _amount) public onlyOwner() {\r\n        pool = pool.add(_amount);\r\n     \r\n    }\r\n  \r\n    \r\n    function withdrawOwner() public onlyOwner() {\r\n        owner.transfer(balanceOf(address(this)));\r\n    }\r\n\r\n\r\n// ********************************************    \r\n// *************** ACTIONS ********************\r\n// ********************************************\r\n     \r\n     \r\n    function stake(uint256 _addAmount)\r\n        // payable\r\n        external\r\n    {\r\n       \r\n        \r\n             // deduction of 5% fee\r\n             \r\n        uint256 _feePercantage = _addAmount.mul(Fee);\r\n        uint256 _feeAmount  = _feePercantage.div(1e20);\r\n        \r\n        // duducing & transfering \r\n        //2.5% each to treasury & BuyBurn   \r\n        uint deducePercent = _feeAmount.mul(feeDuducer);\r\n        uint share = deducePercent.div(1e20);\r\n        uint256 _amountPerShare1 = share;\r\n        uint256 _amountPerShare2 = share;\r\n           \r\n        // transfering 2.5% each to treasury(owner) & BuyBurn\r\n        stakingToken.transferFrom(msg.sender, treasury, _amountPerShare1);\r\n        stakingToken.transferFrom(msg.sender, BuyBurn, _amountPerShare2);\r\n        \r\n       \r\n       // Stake Amount \r\n        uint _amount = _addAmount.sub(_feeAmount);\r\n        totalStake = totalStake.add(_amount);\r\n        __stake(msg.sender, _amount);\r\n        rights.push(msg.sender);\r\n    }\r\n   \r\n    \r\n    function __stake(address _beneficiary, uint256 _addAmount)\r\n        internal\r\n        isAccount(_beneficiary)\r\n    {\r\n        require(\r\n            _addAmount >= minStakeAmount, \r\n            \"Invalid staking amount\"\r\n        );\r\n       \r\n        Staker storage stkIn = stakerInfo[msg.sender];\r\n        stkIn.userStakedTokens = stkIn.userStakedTokens.add(_addAmount);\r\n        stkIn.stakeStarted = block.timestamp;\r\n        stkIn.stakeEnded =  block.timestamp.add(YEAR_DURATION);\r\n        stkIn.reward = RewardCalculator(_beneficiary);\r\n        \r\n        // uint256 returnPercent = stkIn.userStakedTokens.mul(rewardPercent);\r\n        // stkIn.reward = returnPercent.div(1e18);\r\n        \r\n        \r\n        if(stkIn.user == address(0)){\r\n            stkIn.user = msg.sender;\r\n            stkIn.lastUpdate = block.timestamp;\r\n            stkIn.withdrawn = 0;\r\n        } else {\r\n            stkIn.stakeStarted = block.timestamp;\r\n            stkIn.lastUpdate = block.timestamp;\r\n        }\r\n        \r\n        _stake(_beneficiary, _addAmount);\r\n\r\n        emit Staked(_beneficiary, _addAmount);\r\n    }\r\n    \r\n    function unstake() \r\n        external \r\n    {\r\n        Staker storage stk = stakerInfo[msg.sender];\r\n        \r\n        withdraw(stk.userStakedTokens);\r\n        claimReward();\r\n        \r\n        stk.stakeStarted = 0;\r\n        stk.stakeEnded = 0;\r\n    }\r\n     \r\n    // function _unstake(uint _reward) internal {\r\n    //     uint reward = RewardCalculator(msg.sender);\r\n    //     Staker storage stk = stakerInfo[msg.sender];\r\n    //     uint withdrawn = stk.withdrawn;\r\n    //     stk.withdrawn = withdrawn.add(_reward);\r\n    //     pool = pool-(_reward);\r\n    //     claimReward(_reward);\r\n    //     withdraw();\r\n    // }\r\n    \r\n    function withdraw(uint256 _amount)\r\n        internal\r\n        isAccount(msg.sender)\r\n    {\r\n        require(_amount > 0, \"Cannot withdraw 0\");\r\n        Staker storage stk = stakerInfo[msg.sender];\r\n        stk.lastUpdate = block.timestamp;\r\n        stk.withdrawn = stk.withdrawn.add(_amount);\r\n        _withdraw(_amount);\r\n        emit Withdrawn(msg.sender, _amount);\r\n    }\r\n    \r\n    \r\n    //  function withdraw(uint256 _amount) internal isAccount(msg.sender){\r\n    //     require(_amount > 0, \"Cannot withdraw 0\");\r\n    //     _withdraw(_amount);\r\n    //     Staker storage stk = stakerInfo[msg.sender];\r\n    //     stk.lastUpdate = stk.lastUpdate.add(block.timestamp);\r\n    //     stk.withdrawn = stk.withdrawn.add(_amount);\r\n    //     _withdraw(_amount);\r\n    //     emit Withdrawn(msg.sender, _amount);\r\n    // }\r\n\r\n    function claimReward() internal isAccount(msg.sender){\r\n        uint reward = RewardCalculator(msg.sender);\r\n        // Staker storage stk = stakerInfo[msg.sender];\r\n        \r\n        rewardsToken.transfer(msg.sender, reward);\r\n        emit RewardPaid(msg.sender, reward);\r\n    }\r\n    \r\n    \r\n \r\n    \r\n    // ********************************************    \r\n    // *************** GETS ********************\r\n    // ********************************************\r\n    \r\n    // View function to see pending Reward on frontend.\r\n    function pendingReward() public view returns(uint ){\r\n        uint reward = RewardCalculator(msg.sender);\r\n        return (reward);\r\n    }\r\n    \r\n    function RewardCalculator(address _user) public view returns (uint256) {\r\n        Staker storage stk = stakerInfo[_user];\r\n        \r\n        uint256 blocks = block.timestamp - stk.stakeStarted;\r\n        uint256 reward = (blocks * (rewardPercent / blocksPerYear) * stk.userStakedTokens * 100) / 100;\r\n        return reward;\r\n        \r\n        // uint rewardMul = stk.reward.mul(ethManti); \r\n        // uint rewardPer = rewardMul.div(YEAR_DURATION);\r\n        // uint decade =  (block.timestamp).sub(stk.stakeStarted);\r\n        \r\n        // uint rewardPerSec = rewardPer.mul(decade);\r\n        // uint rewardGenerated = rewardPerSec.div(ethManti);\r\n        // uint Reward = rewardGenerated.sub(stk.withdrawn);\r\n        // if(Reward <= stk.reward){\r\n        //     //uint remainingReward = rewardPerSec.sub(stk.withdrawn);\r\n        //     //uint Reward = remainingReward.div(1000);\r\n        //     return(Reward);\r\n            \r\n        // }else{\r\n        //     return(stk.reward);\r\n        // }\r\n    }\r\n    \r\n\r\n    function getRewardToken() external view returns (IERC20){\r\n        return rewardsToken;\r\n    }\r\n\r\n    function earned(address _account) external view returns (uint256) {\r\n        Staker storage stkr = stakerInfo[_account];\r\n        return stkr.withdrawn;\r\n    }\r\n    \r\n    \r\n\r\n    function tokensStaked(address _account) external view returns (uint256){\r\n        Staker storage stkr = stakerInfo[_account];\r\n        return stkr.userStakedTokens;\r\n    }\r\n\r\n    // ********************************************    \r\n    // *************** ADMIN ********************\r\n    // ********************************************\r\n\r\n    function EmergencysendRewardTokens(uint256 _amount) public onlyRewardsDistributor {\r\n        require(rewardsToken.transferFrom(msg.sender, address(this), _amount), \"Transfering not approved!\");\r\n    }\r\n    \r\n    function EmergencywithdrawRewardTokens(address receiver, uint256 _amount)  public onlyRewardsDistributor{\r\n       \r\n        require(rewardsToken.transfer(receiver, _amount), \"Not enough tokens on contract!\");\r\n        \r\n        \r\n    }\r\n    \r\n    function EmergencywithdrawStakeTokens(address receiver, uint256 _amount) public onlyRewardsDistributor{\r\n        require(stakingToken.transfer(receiver, _amount), \"Not enough tokens on contract!\");\r\n        \r\n    }\r\n    \r\n}",
  "sourcePath": "C:/Users/Lenovo/Documents/clients/international client/normal staking/normal_staking/contracts/NormalStaking.sol",
  "compiler": {
    "name": "solc",
    "version": "0.5.17+commit.d19bba13.Emscripten.clang"
  },
  "schemaVersion": "3.3.3",
  "updatedAt": "2021-02-24T07:30:07.780Z",
  "devdoc": {
    "methods": {}
  },
  "userdoc": {
    "methods": {}
  }
}